:090211000708501514221006170D
:0B0206001201AE12011212021B80FB5D
:03021B0002017B62
:1001AE007F381201E67F0C1201E67F061201E67F10
:0401BE00010201E653
:1001C2007580FFC2A6D2A5D2A7AF80C2A7EF20E753
:0101D200F636
:0101D3002209
:1001E600AE071201C2C2A6C2A58E80D2A7C2A7229E
:1001F600AE071201C2D2A6C2A58E80D2A7C2A7227E
:1001D400ED7004AC078004EF2440FCEC4480FF0283
:0201E40001E632
:1000C2008B0F8A1089111201D4AB0FAA10A9111239
:1000D200019560130511E5117002051014F9120162
:0800E20095FF1201F680E222F5
:02008F00AD07BB
:10009100751200751301E4FBFAEDFFE5135F24FF10
:1000A10092A1E51325E0F513E51233F512D2A20072
:1000B100C2A2000BBB00010AEB64084A70DBD2A1AB
:0100C100221C
:10015E00AE05C2A000C2A200D2A000EF25E04480EE
:0D016E00FF12008FAF0612008FC2A000220A
:1000EA00E4F97F01FEFDFC30A103EF4201EF25E0B8
:1000FA00FFEE33FED2A200C2A2000DBD00010CED3C
:07010A0064074C70E2AF0135
:0101110022CB
:10013A00E4FEC2A000C2A200D2A000EF25E04481E2
:10014A00FF12008F1200EAC2A000D2A200C2A100D0
:03015A00D2A1002F
:01015D00227F
:10011200C2A0C2A2E4FF12013AAC07EC30E018E43C
:10012200FD7F0712015EE4FCAF0474082CF8E6FDC3
:0701320012015E0CBC07F195
:0101390022A3
:10017B00900000AF8212013AAE8274082EF8A607E7
:09018B00A3E5826407458370EAD4
:010194002248
:03000000020003F8
:0C000300787FE4F6D8FD75811302004AF6
:10019500BB010689828A83E0225002E722BBFE0268
:0901A500E32289828A83E493229B
:10000F00020206E493A3F8E493A34003F68001F2FF
:10001F0008DFF48029E493A3F85407240CC8C333F2
:10002F00C4540F4420C8834004F456800146F6DFC1
:10003F00E4800B0102040810204080900211E47E3E
:10004F00019360BCA3FF543F30E509541FFEE493B6
:10005F00A360010ECF54C025E060A840B8E493A37D
:10006F00FAE493A3F8E493A3C8C582C8CAC583CAA8
:10007F00F0A3C8C582C8CAC583CADFE9DEE780BE60
:01021A0000E3
:00000001FF
