:020000040800F2
:1000000088060020D501000885120008A90C000808
:10001000491200089B0500084D1800080000000068
:100020000000000000000000000000007113000844
:10003000A9080008000000002D1300084D15000855
:10004000EF010008EF010008EF010008EF010008D0
:10005000EF010008EF010008EF010008EF010008C0
:10006000EF010008EF010008EF010008EF010008B0
:10007000EF010008EF010008EF010008EF010008A0
:10008000EF010008EF010008EF010008EF01000890
:10009000EF010008EF010008EF0100084D0900081A
:1000A000EF010008EF010008EF010008EF01000870
:1000B000A5150008EF010008EF010008EF01000896
:1000C000EF010008EF010008EF010008EF01000850
:1000D000EF010008EF010008EF010008EF01000840
:1000E000EF010008EF010008EF010008EF01000830
:1000F000EF010008EF010008EF010008EF01000820
:10010000EF010008EF010008EF010008EF0100080F
:10011000EF010008EF010008EF010008EF010008FF
:10012000EF010008EF010008EF010008EF010008EF
:1001300000F002F800F03FF80AA090E8000C8244BA
:100140008344AAF10107DA4501D100F034F8AFF297
:10015000090EBAE80F0013F0010F18BFFB1A43F0A5
:1001600001031847601F0000801F0000103A24BFE1
:1001700078C878C1FAD8520724BF30C830C144BF0C
:1001800004680C607047000000230024002500264E
:10019000103A28BF78C1FBD8520728BF30C148BFEA
:1001A0000B607047642900F07180002070471FB514
:1001B0001FBD10B510BD00F0BAF91146FFF7F7FFEB
:1001C00001F056FB00F0D8F903B4FFF7F2FF03BCCF
:1001D00000F0DCF90948804709480047FEE7FEE7E0
:1001E000FEE7FEE7FEE7FEE7FEE7FEE7FEE7FEE7E7
:1001F00004480549054A064B7047000051150008A0
:1002000031010008880000208806002088020020B4
:10021000880200200FB41CB5074B06AA7B44694630
:100220000090059800F06BF90020694600F07AF91B
:100230001CBC5DF814FB00000503000070B504460B
:1002400085690068C10601D5302600E02026C00778
:1002500007D070BDD4E9012130469047206A401C88
:1002600020626D1EF6D570BD70B5044685690078B4
:10027000C00707D170BDD4E9012120209047206A32
:10028000401C20626D1EF6D570BD00002DE9F041C6
:100290000646002410687529314616A510D0AFF324
:1002A0000080002802DA404213A507E031688A077F
:1002B00001D512A502E0490704D511A5012401E0EA
:1002C000AFF3008000210A2206F1240709E0B0FB09
:1002D000F2FCB0FBF2F302FB1C00303078541846FD
:1002E000491C0028F3D123462A463046BDE8F04198
:1002F00000F0A7B8000000002D0000002B00000057
:10030000200000002DE9F05F894604464FF0000A06
:10031000DFF824B1FB44C0F820A02046E1688847FC
:1003200000287DD0252806D0D4E901219047206AF5
:10033000401C2062F1E700255F462046E1688847BF
:100340002028064607DB312E05D2B81910F8200CFC
:1003500008B10543F1E7A80701D525F00405C4F865
:100360001CA00027C4F818A02A2E09D0304601F09E
:100370006FFA38B304EB8708303EC8F8186019E00C
:1003800059F8041B204604EB87029161E168884715
:10039000012F064618D1E069002820DA25F0200553
:1003A0001DE0D8F8180000EB800006EB4000303864
:1003B000C8F818002046E1688847064601F048FA68
:1003C0000028EED1012F0AD02E2E08D12046E16858
:1003D00088477F1C0646022F45F02005C4DBA06934
:1003E000002803DA404245F00105A061E80701D08A
:1003F00025F01005A6B1A6F14100192802D8203633
:1004000045F400654A463146204625604D46FFF7D3
:10041000C9FE60B1012807D0ED1D25F0070000E0FE
:1004200007E000F1080978E705F1040975E73046AF
:100430007AE7206ABDE8F09F9B1D00007047704777
:1004400070472DE9F0470D4699469246044600F163
:1004500024080168880604D5E06921F010012160B4
:1004600000E00120A84201DD471B00E00027A16950
:100470007A1902EB0900081AA0612078C00602D49C
:100480002046FFF7DBFE002608E0D4E901211AF838
:1004900006009047206A401C761C20624E45F4DB23
:1004A0002078C0060AD52046FFF7C8FE06E0D4E94A
:1004B000012130209047206A401C2062381EA7F19D
:1004C0000107F4DC07E0D4E9012118F805009047A2
:1004D000206A401C2062281EA5F10105F3DC20469D
:1004E000FFF7C2FE2078000602D50220BDE8F087A3
:1004F0000120FBE701694A1C02610878704700B5DA
:100500008FB0CDE901310021059105497944CDE94C
:10051000031011466846FFF7F5FE0FB000BD00005E
:10052000E5FFFFFF0A6802F8010B0A607047754695
:1005300000F028F8AE4605006946534620F0070053
:10054000854618B020B5FFF753FEBDE820404FF0B8
:1005500000064FF000074FF000084FF0000B21F0AD
:100560000701AC46ACE8C009ACE8C009ACE8C0097A
:10057000ACE8C0098D4670470446AFF300802046C2
:10058000FFF722FE0048704728000020014918208C
:10059000ABBEFEE726000200704700BFFEE700008A
:1005A000E2200449087004490870044908700449AD
:1005B000087070470400002005000020060000209D
:1005C000070000201E2004490870044908700449EF
:1005D00008700449087070470400002005000020DE
:1005E0000600002007000020EC20064908701E20AD
:1005F00005490870EC200549087028200449087056
:1006000070470000040000200500002006000020C4
:100610000700002010B58A4890F90000002818DD76
:1006200088480068864991F90010884208D2012163
:10063000854800F0B9FA0221834800F0B3FA2FE0B0
:100640000121814800F0AEFA02217F4800F0AAFAA9
:1006500026E07B4890F90000002819DA784890F9E4
:100660000000404277490968884208D9012176484C
:1006700000F098FA0221744800F096FA10E0012187
:10068000714800F08FFA02216F4800F08BFA07E002
:1006900001216D4800F086FA02216B4800F082FAD1
:1006A0006A4890F90000002818DD6648006867492C
:1006B00091F90010884208D28021634800F074FA52
:1006C0004021614800F06EFA2FE080215E4800F082
:1006D00069FA40215C4800F065FA26E05B4890F931
:1006E0000000002819DA594890F9000040425549A5
:1006F0000968884208D98021534800F053FA402104
:10070000514800F051FA10E080214F4800F04AFAB9
:1007100040214D4800F046FA07E080214A4800F0A9
:1007200041FA4021484800F03DFA494890F900005C
:10073000002818DD43480068454991F900108842B7
:1007400008D20821404800F02FFA04213E4800F06A
:1007500029FA2FE008213C4800F024FA04213A4805
:1007600000F020FA26E03A4890F90000002819DA53
:10077000374890F90000404232490968884208D958
:100780000821314800F00EFA04212F4800F00CFA3D
:1007900010E008212C4800F005FA04212A4800F056
:1007A00001FA07E00821284800F0FCF90421264856
:1007B00000F0F8F9274890F90000002818DD2148DA
:1007C0000068244991F90010884208D210211E487F
:1007D00000F0EAF920211C4800F0E4F92FE0102194
:1007E000194800F0DFF92021174800F0DBF926E076
:1007F000184890F90000002819DA164890F900000E
:10080000404210490968884208D910210E4800F07A
:10081000C9F920210C4800F0C7F910E010210A485E
:1008200000F0C0F92021084800F0BCF907E01021D1
:10083000054800F0B7F92021034800F0B3F910BDD6
:100840000400002000000020001C014005000020E2
:1008500006000020070000201E2006490870EC203A
:1008600005490870282005490870EC2004490870E3
:100870007047000004000020050000200600002052
:10088000070000200020044908700449087004494A
:10089000087004490870704704000020050000201B
:1008A0000600002007000020704710B5044602E053
:1008B0008C2000F007F82000A4F10101CCB2F7D1A0
:1008C00010BD000031B5009884B20121094800F044
:1008D000C1FE2146074800F0E6FE03E0054800F0AF
:1008E000C5FE0446012CF9DC0021024800F0B2FEEE
:1008F00038BD00000004004000EBC0014FF0E022D2
:1009000051611146096941F00101116100BF4FF0C9
:10091000E021096901F480310029F8D000214FF06D
:10092000E02211619161704710B507480068401CD2
:1009300005490860084600680F2803D300200860B6
:1009400000F034F910BD00002400002010B5402054
:1009500000F016F820B1402000F00CF800F0E2F9A9
:100960004FF4807000F00CF818B14FF4807000F074
:1009700001F810BD014908607047000014040140EF
:10098000014600200022074B1B6803EA0102054BC9
:1009900014331B680B4013B10AB1012000E00020A2
:1009A0007047000000040140002123498279002A99
:1009B0003AD00A46126803689A430B461A600A1D29
:1009C000126803689A430B1D1A60027911440A6881
:1009D00003681A430A60184A0832126803689A4387
:1009E000154B08331A601A1D126803689A43124B9C
:1009F0000C331A604279102A0ED11A1F126803684C
:100A00001A430D4B08331A601A1D126803681A4303
:100A1000094B0C331A600DE00749427911440A680A
:100A200003681A430A6005E0027911440A68036802
:100A30009A430A60704700000004014030B500226C
:100A40008B071C0F0F2303FA04F20B4B8C1053F887
:100A500024309343084C8D1044F8253023468C10E5
:100A600053F824308C07240F00FA04F42343024C7B
:100A70008D1044F8253030BD080001402DE9F041CB
:100A8000024600250026002000230024002791F8BC
:100A900003C00CF00F0591F803C00CF0100CBCF172
:100AA000000F03D091F802C04CEA050591F800C090
:100AB000BCF1000F31D0146800202BE04FF0010C86
:100AC0000CFA00F3B1F800C00CEA03069E4220D1F4
:100AD00083004FF00F0C0CFA03F7BC4305FA03FC3C
:100AE0004CEA040491F803C0BCF1280F06D14FF082
:100AF000010C0CFA00FCC2F814C00AE091F803C023
:100B0000BCF1480F05D14FF0010C0CFA00FCC2F803
:100B100010C0401C0828D1D31460B1F800C0BCF14B
:100B2000FF0F34DD546800202EE000F1080C4FF078
:100B3000010808FA0CF3B1F800C00CEA03069E4263
:100B400021D183004FF00F0C0CFA03F7BC4305FAD8
:100B500003FC4CEA040491F803C0BCF1280F05D152
:100B600000F1080C08FA0CF8C2F8148091F803C0E0
:100B7000BCF1480F07D100F1080C4FF0010808FA4A
:100B80000CF8C2F81080401C0828CED35460BDE891
:100B9000F0810246002093680B400BB1012000E079
:100BA00000207047416170470161704710B5802196
:100BB0003748FFF7F9FF0120364908700021364811
:100BC00000F071FD0121344800F044FD00BF3248BF
:100BD00000F04CFD0B28FADB02202E490870802122
:100BE0002B48FFF7DFFF00212B4800F05CFD10E0F1
:100BF000294800F03BFD4EF66021884209DD0020C7
:100C000024490870254908600021234800F022FD8E
:100C100010BD4FF480712248FFF7BBFF0028E7D0DA
:100C200000211D4800F03FFD12E01B4800F01EFDB2
:100C300004464EF66020844209DD00201549087004
:100C4000164908600021144800F004FDE0E700BFE9
:100C50004FF480711248FFF79CFF0128E5D00E4841
:100C600000F004FD0F49086000210B4800F0F2FC81
:100C70000C48006800EB001040004FF4FA6190FB54
:100C8000F1F00649086000200249087000BFBFE784
:100C90000010014014000020000800401C0000204B
:100CA000000801401800002000BFFEE71FB5012129
:100CB000112000F04DFB4020ADF80C0048208DF8CD
:100CC0000F0003208DF80E0003A91548FFF7D6FE8C
:100CD00006210220FFF7B2FE402001900C208DF883
:100CE000090000208DF8080001208DF80A0001A8F5
:100CF000FFF75AFE4FF4E06000F0FEFA17208DF87F
:100D0000000000208DF801008DF8020001208DF810
:100D10000300684600F0B8FA00F01AFD1FBD00009D
:100D20000010014070B500260F20FFF7BEFD4021E6
:100D30004048FFF72EFF012800D170BD28203E4912
:100D4000087002E00120FFF7B0FD40213948FFF7AD
:100D500020FF0028F6D0002437E0002531E002E033
:100D60000120FFF7A2FD40213248FFF712FF0028C3
:100D7000F6D102E00120FFF798FD40212D48FFF752
:100D800008FF0028F6D007E00120FFF78EFD701C59
:100D9000C6B21E2E00DBD0E740212648FFF7F9FE41
:100DA0000028F1D12548005D401024490855082E3F
:100DB00004DB0846005D40F0800008550026681CF2
:100DC000C5B2082DCBDB601CC4B2042CC5DB1B48AC
:100DD000C078C043C5B219488078A84200D0ACE7BB
:100DE00016488078432815D004DC15280AD04028FE
:100DF00018D113E0442809D0462813D155201049B2
:100E0000087010E044200E4908700CE04C200C499A
:100E1000087008E052200A49087004E0532008498D
:100E2000087000E089E700BF01200649087000BF94
:100E300083E70000001001400C0000200E0000209D
:100E40000B0000200D00002008B50121402000F01B
:100E50007FFA4FF4F060ADF8000010208DF8030029
:100E600003208DF8020069460448FFF707FE4FF49F
:100E7000F0610248FFF798FE08BD0000001801402D
:100E800010B5162400F08CF84FF480512948FFF774
:100E900089FE40F6B830FFF72FFD4FF4805125480A
:100EA000FFF782FE3220FFF727FDE22000F0FAF87C
:100EB0000F20FFF721FD2C2000F0F4F80F20FFF7A2
:100EC0001BFD2E2000F0EEF80F20FFF715FD2F2060
:100ED00000F0E8F80F20FFF70FFD242000F0E2F803
:100EE000812000F0DFF8162000F0DCF8A22000F0EE
:100EF000D9F8C82000F0D6F8A02000F0D3F84020A0
:100F000000F0D0F8AF2000F0CDF800F0AFF80AA262
:100F10000021084600F02AF90CA20321002000F06D
:100F2000F9FA0DA20521002000F0F4FA532000F098
:100F30001BF810BD00100140BABDCCABB5E7D7D34C
:100F4000D3D0CFDEB9ABCBBE00000000436F6D6DD8
:100F5000616E643A0000000044697374616E6365F9
:100F60003A20202020636D0001B56A460321482005
:100F700000F0D0FA08BD000038B50446224606A1AC
:100F80006846FFF747F900208DF803006A460521FF
:100F9000482000F0BFFA38BD25303364000000005F
:100FA00008B50121102000F0D3F94FF48060ADF8AE
:100FB000000003208DF8020010208DF80300694620
:100FC0002448FFF75BFD0121102000F0C1F94FF428
:100FD0008050ADF8000003208DF8020010208DF83D
:100FE000030069461B48FFF749FD0121202000F05E
:100FF000AFF90220ADF8000003208DF802001020A8
:101000008DF8030069461448FFF738FD01212020C0
:1010100000F09EF90820ADF8000003208DF80200D2
:1010200010208DF8030069460B48FFF727FD0121CA
:10103000202000F08DF92020ADF8000003208DF86D
:10104000020010208DF8030069460348FFF716FDE3
:1010500008BD000000100140001401400249096869
:101060004140014A116070470C18014070B50024DE
:1010700015E004F1B001C8B200F014F8102000F03F
:1010800011F8002000F00EF8002504E0002000F028
:101090003BF8681CC5B2802DF8DB601CC4B2082C7C
:1010A000E7DB70BD70B504464FF480611448FFF76C
:1010B00079FD02211348FFF775FD002517E008218F
:1010C0001048FFF76FFD04F0800020B120210D488B
:1010D000FFF76AFD03E020210A48FFF763FD0821BE
:1010E0000848FFF761FD6006040E681C45B2082D34
:1010F000E5DB4FF480610248FFF756FD70BD00004C
:10110000001001400014014070B504464FF48061A6
:101110001448FFF747FD02211348FFF745FD00255E
:1011200017E008211048FFF73DFD04F0800020B1D2
:1011300020210D48FFF738FD03E020210A48FFF782
:1011400031FD08210848FFF72FFD6006040E681CDA
:1011500045B2082DE5DB4FF480610248FFF724FD1E
:1011600070BD000000100140001401402DE9F0475F
:1011700005460C4616466006040E072C02DD0020CC
:10118000BDE8F087802D01DD0020F9E704F1B00013
:10119000C4B22046FFF786FF4EE02046FFF782FFED
:1011A0004FEA151905F00F0A09F11001C8B2FFF74F
:1011B00079FF5046FFF776FF00273AE007EB07106C
:1011C000204901EB400090F82000317888422ED170
:1011D00007EB07101B4901EB400090F821007178E4
:1011E000884224D14FF000081BE0B8F1100F0BD15A
:1011F000611CC8B2FFF756FF09F11001C8B2FFF732
:1012000051FF5046FFF74EFF07EB07110D4A02EB67
:10121000410111F80800FFF777FF08F1010000F025
:10122000FF08B8F1200FE0DB05F11000C5B2781C13
:10123000C7B2322FC2DBB61C30780028ADD10120F6
:101240009EE700005019000800BFFEE708B5012125
:10125000802000F07DF8FF20ADF8000002208DF81E
:10126000020010208DF8030069460248FFF706FCD3
:1012700008BD0000001C014010B5FFF7E7FFFFF7B5
:1012800001FB10BD7047000070B5002100230F2244
:10129000C47804B3154C246804F4E064C4F5E06435
:1012A000210AC1F10403CA40447804FA03F18478A6
:1012B0001440214309010E4C0678A155047804F02E
:1012C0001F050124AC4005786D11AD0005F1E02546
:1012D000C5F8004109E0047804F01F050124AC4082
:1012E000044D0678761145F8264070BD0CED00E0FF
:1012F00000E400E080E100E002490143024A11609D
:10130000704700000000FA050CED00E008B51C2055
:101310008DF8000000208DF8010001208DF80200FA
:101320008DF803006846FFF7AFFF08BD7047000067
:1013300029B1064AD2690243044BDA6104E0034A48
:10134000D2698243014BDA6170470000001002400D
:1013500029B1064A92690243044B9A6104E0034AA8
:1013600092698243014B9A6170470000001002406D
:10137000704700000146002008E000EB0012084B17
:101380001A44127C8A4200D17047401C00EB0012C4
:10139000034B1A44127C202AEFD100BFF4E700006F
:1013A000601A000810B500F001F810BD0CB500205F
:1013B000019000903348006840F480303149086063
:1013C00000BF3048006800F4003000900198401CD5
:1013D0000190009818B90198B0F5A06FF1D1294893
:1013E000006800F4003010B10120009001E00020FE
:1013F00000900098012843D12348006840F0100075
:10140000214908600846006820F00300086008468B
:10141000006840F0020008601A48406819494860B6
:101420000846406848600846406840F4806048606C
:101430000846406820F47C1048600846406840F444
:10144000E81048600846006840F08070086000BFFF
:101450000C48006800F000700028F9D00948406886
:1014600020F00300074948600846406840F0020049
:10147000486000BF0348406800F00C000828F9D11C
:101480000CBD000000100240002002402DE9F05F7A
:1014900005460F4691463E46072E01DDBDE8F09F0A
:1014A000802D00DDFAE706F1B000C6B23046FFF746
:1014B000F9FD4FEA151805F00F0A08F11001C8B23E
:1014C000FFF7F0FD5046FFF7EDFD4846FFF752FFEE
:1014D00000F0FF0B002416E0082C0BD1711CC8B2E1
:1014E000FFF7E0FD08F11001C8B2FFF7DBFD504641
:1014F000FFF7D8FD0BEB0B11054A1144085DFFF710
:1015000003FE601CC4B2102CE6DB00BFC6E700007F
:10151000601A00082DE9F04105460F4614462E4694
:10152000B8460EE0227808F0FF01F0B2FFF7AEFFF8
:10153000083606F10800802802D92E4608F1020874
:10154000641C20780028EDD1BDE8F08170470000D0
:1015500010B51148006840F001000F4908600846C6
:1015600040680E4908400C494860084600680C492C
:101570000840094908600846006820F48020086097
:101580000846406820F4FE0048604FF41F00886061
:10159000FFF708FF10BD0000001002400000FFF838
:1015A000FFFFF6FE10B50121880700F062F808B3CE
:1015B0000121880700F04BF80F480078401C0E49C5
:1015C0000870084600780A2814DB002008700B48D1
:1015D0000068401C0949086009480078401C084917
:1015E000087006480068322802D3002003490860CA
:1015F000FFF710F810BD00000900002000000020D7
:10160000080000200EB501210846FFF791FE632077
:10161000ADF804004720ADF800000020ADF806004A
:10162000ADF8020069464FF0804000F03FF801211C
:10163000880700F00CF801221146900700F02AF804
:101640000121880700F006F8FFF760FE0EBDCA43CF
:101650000282704721B1028842F00102028004E058
:1016600002884FF6FE731A40028070470146888C4C
:10167000704730B50246002000230024158A05EA91
:101680000103958905EA010413B10CB1012000E0C2
:10169000002030BD1AB183890B43838102E0838926
:1016A0008B43838170478184704700000022028849
:1016B0001D4B98420ED01D4B98420BD0B0F1804F7D
:1016C00008D01B4B984205D01A4B984202D01A4BB7
:1016D000984204D14FF68F731A404B881A43174B28
:1016E000984207D0164B984204D04FF6FF431A4059
:1016F000CB881A4302808B8883850B8803850A4B2D
:1017000098420BD0094B984208D00E4B984205D016
:101710000D4B984202D00D4B984201D10B7A0386B3
:101720000123838270470000002C014000340140F7
:101730000004004000080040000C00400010004081
:1017400000140040004001400044014000480140B6
:101750000EB501210220FFF7EBFD0120ADF80400DA
:101760004720ADF800001020ADF80200694602489D
:10177000FFF79CFF0EBD0000000400400EB50121E4
:101780000420FFF7D5FD4FF6FF70ADF804004720A9
:10179000ADF800000020ADF8020069460148FFF7EF
:1017A00085FF0EBD000800401FB501210420FFF792
:1017B000CFFD4FF48070ADF80C0048208DF80F007D
:1017C00003208DF80E0003A91F48FFF757F90121E8
:1017D0001020FFF7BDFD8020ADF80C0010208DF823
:1017E0000F0003208DF80E0003A91748FFF746F9F4
:1017F00008210020FFF722F94FF4807001900C209F
:101800008DF8090000208DF808008DF80A0001A865
:10181000FFF7CAF84FF4E060FFF76EFD28208DF85F
:10182000000000208DF8010002208DF80200012048
:101830008DF803006846FFF727FDFFF79FFF802123
:101840000148FFF7AFF91FBD0010014000BFFEE7E0
:1018500030380A2801D201207047002070474FF02D
:10186000E020006920F004004FF0E021086170479B
:10187000FFF7F5FFFFF704FBFFF718FAFFF7C2FECB
:10188000FFF7FAFCFFF790FFFFF7DEFA53E02A4874
:10189000007805284FDB002027490870274800788A
:1018A000401C2649087008460078282809DB0020DB
:1018B00008704FF48070FFF7D1FB21480068FFF7F4
:1018C0005BFB20480078401E1E49087008460078DF
:1018D00018B901200870FEF7D5FFFFF725F81A4860
:1018E0000078012827D1002017490870174890F97F
:1018F0000000522812D004DC442809D04C2813D10F
:1019000009E053280DD055280ED1FEF75BFE0CE000
:10191000FEF746FE09E0FEF767FE06E0FEF79CFFD5
:1019200003E0FEF7AFFF00E000BF00BF074890F9FB
:101930000000FFF719FBAAE7080000200A000020BA
:101940001C0000200C0000200D0000200B000020D7
:1019500080FC96E584FC0008C8494AC808080000D5
:10196000807F024C807F80601F00003F40407800F5
:10197000BABD20202020202020FF20202020202051
:10198000200080804020100C1360030C1020408049
:101990008000CCAB0000F888888888FF8888888819
:1019A000F800000000001F080808087F8888888861
:1019B0009F80F000B5E780828282828282E2A292DA
:1019C0008A8682808000000000000040807F000046
:1019D000000000000000D7D304040484E43C272462
:1019E000242424E40404040004020100FF0909097A
:1019F0000949897F00000000D3D000FE225A8600EA
:101A0000FE9292929292FE00000000FF04080700EE
:101A1000FF4020030C1422414000CFDE0080402014
:101A20001806800007182040800000000100207088
:101A3000282621202024386000010100B9AB0010C5
:101A400012929292929292121202FE0000000000F4
:101A5000003F101010103F0040807F000000CBBE00
:101A6000000000FC000000000000000C0C00000062
:101A70002100080402080402000000000000000029
:101A8000002220E03820A0782000020F02020F027E
:101A9000020023003048FC883000000006081F08C0
:101AA000070000247088F08060980000000806019C
:101AB000070807002500F08848B080800007080963
:101AC0000A040B08042610160E0000000000000097
:101AD00000000000000027000000E01804020000E1
:101AE000000003040810002800020418E0000000B1
:101AF0000010080601000000292020C0F8C02020A6
:101B00000001010007000101002A404040F8404068
:101B1000400000000003000000002B000000000057
:101B2000000000202C1C00000000002C0040404061
:101B30004040404000000000000000002D00000078
:101B40000000000000000C0C00000000002E00004F
:101B50000000C0300C0200100C03000000002F0039
:101B6000E010080818E0000003040808040300302F
:101B7000001010F8000000000008080F080800001E
:101B8000310030080808887000000C0A0A09080CA7
:101B900000320030084848C8300000060808080431
:101BA0000300330080601008FC00000001020A0AF4
:101BB0000F08003400F888484888880000060808A4
:101BC000080403003500E090484898800000030CAA
:101BD0000808040300360038088868180800000068
:101BE000000F0000000037003048888848300000AF
:101BF000070908080906003800E090080890E0008E
:101C000000000C09090403003900000060600000B6
:101C1000000000000C0C0000003A00000040000032
:101C2000000000002018000000003B0040A0101041
:101C300008040000000001020204003C20202020D3
:101C40002020200001010101010101003D000408E4
:101C50001010A0400000040202010000003E003805
:101C60002404844438000000000C0D0000003FE014
:101C700010C828E818F00003040B0A090A05004000
:101C80000000E01870800000080E0901010B0C082C
:101C90004108F8484848B00000080F080808040741
:101CA0000042E01008080808380003040808080487
:101CB00002004308F808080810E000080F080808A8
:101CC0000403004408F88888C8081000080F0808B2
:101CD000090804004508F88888C8081000080F089B
:101CE000000100000046E010080808380000030466
:101CF0000808090701004708F888808088F8080864
:101D00000F080000080F0848000808F8080800003D
:101D10000008080F080800004900000808F8080833
:101D200000302020201F0000004A08F8C8C02818F2
:101D30000800080F08000B0C08004B08F80800000A
:101D4000000000080F080808080C004C08F878800C
:101D500078F80800080F000F000F08004D08F83051
:101D6000C00008F808080F080003040F004EE01038
:101D700008080810E00003040808080403004F08DE
:101D8000F8888888887000080F080000000000505C
:101D9000E01008080810E00003040A0A0C141300FD
:101DA0005108F84848C8483000080F080001030CE3
:101DB00008520070488888081800000E08080809B2
:101DC000070053180808F8080818000000080F0852
:101DD0000000005408F808000008F8080007080888
:101DE000080C0700550838C80000E8380800000350
:101DF0000C0700000056F80800F88008F800010EF3
:101E00000701030E010057081828C0C03818080839
:101E10000C0E01010A0C08580818688068180800A0
:101E20000000080F0800000059100808886818080A
:101E300000080C0B08080804005A000000FE02020B
:101E400002000000001F101010005B0004186080EA
:101E500000000000000000030C10005C0002020201
:101E6000FE000000001010101F0000005D000004C4
:101E7000020202040000000000000000005E0000FA
:101E800000000000000020202020202020205F00F3
:101E900000020000000000000000000000000060E0
:101EA000008040404040800000040A0909090F08F2
:101EB0006108F8404040808000000F0808080807CB
:101EC00000620080C040404080000007040808080D
:101ED000040063000080404048F80000070808083C
:101EE000080F086400804040404080000007090956
:101EF0000909050065004040F048484818000808F6
:101F00000F08080000660080404040C04000001DEF
:101F10002A2A2A2910006708F880404040800008DB
:101F20000F080000080F0868004048C800000000C3
:101F30000008080F08080000690000004048C800B9
:101F40000000202020201F00006A08F80000C04088
:101F50004000080F0A010E0C08006B000808F8008A
:101F60000000000008080F080800006C40C0404056
:101F7000C04040C0080F08000F08000F6D40C0802F
:101F80004040808000080F080000080F086E0080A5
:101F900040404040800000070808080807006F40E4
:101FA000C0804040808000203F2808080403007063
:101FB000008080404040C0000007080808283F20FB
:101FC000714040C0804040400008080F08080000F1
:101FD0000072008040404040C000000C09090A0A1D
:101FE000040073004040F04040000000000007087B
:101FF0000800007440C000000040C000000708084E
:1020000008080F087540C040000040C040000007AD
:10201000080601000076C04000C00040C040030C2C
:102020000403070C0300770040C08040C04000005C
:10203000080C0F030C08007840C040000040C0406E
:102040002020231C060300007900C0404040C0400F
:102050000000080C0A09080C007A0000000040BCCF
:10206000020200000000000F10107B00000000FFC3
:10207000000000000000003F0000007C000202BCE5
:10208000400000000010100F000000007D00000064
:102090000000000000000000000000000020486177
:1020A0006E74656368204D435500436F6D6D616EBE
:1020B000643A000400000800000000000000020074
:1020C00001000010E42000080000002028000000AB
:1020D0006C0100080C2100082800002060060000A8
:1020E00088010008000000001E1E1E1E0000005394
:1020F00000000000000000000000000000000000E0
:0C210000000000000000000000000000D3
:0400000508000131BD
:00000001FF
