:1003700065766572797468696E67206973204F4B82
:0E0380002E006265206361726566756C2E004A
:1003AC001203FD1204137BFF7A0379701203E37BB3
:0D03BC00FF7A0379821203E31202C580FB71
:10038E002A2A5374617274212A2A002A2A436C6F16
:0E039E007365212A2A004E6174757265210074
:10035000013A000139000131000237000001360086
:0C036000013300013500013200013400BF
:10041300438902758CA3758AA3D2A9D2AF75B8108C
:03042300D28C2256
:03000B00020245A9
:10024500C0E0C0D0E53A70190539E539D39531508C
:1002550004D2818002C281E5396414705EF539806B
:100265005A0538E538700205370533E533D3953639
:100275005004D2818002C281E533B4640575330030
:10028500D281E538B48819E537B41314E535701013
:10029500F537F5380536E536B40A20753501801B86
:1002A500E538B48816E537B41311E535B4010C7596
:1002B5003700753800D53603753500D0D0D0E0321B
:10031600E4F53A8F31E5346401702EF534E508B41E
:1003260053087BFF7A03798E8013E508B443087B74
:10033600FF7A03799980067B007A0079081203E335
:0A034600E4F537F538F533F53522FC
:1003C900753A01E532B40111E4F5327BFF7A03791C
:0A03D900A41203E3E4F536F539221F
:10000E0052656365696576656421004E6F742043A1
:04001E004D4421002C
:03036C000130005D
:1003FD0075985075CBFF75CDFF75CAFD75CCFD7524
:06040D00C83475A890221E
:1003E300C2AC12011C6010F5993099FDC2997401D9
:0A03F30029F9E43AFA80EBD2AC22BB
:030023000201C116
:1001C100C0E0C0F0C083C082C0D075D000C000C004
:1001D10001C002C003C004C005C006C00730984971
:1001E100C298C2AFAF300530741C2FF8A699E53024
:1001F10064037033741A2530F8E6640D7029AF304A
:10020100FE78087C00FDFB7A00791C1200F6740868
:100211002530F876007530007534017532017BFFA9
:100221007A00790E1203E3D2AFD007D006D005D001
:1002310004D003D002D001D000D0D0D082D083D05E
:04024100F0D0E032E7
:1002C500AF08EF24CF602314602414602514602642
:1002D50014602724F2600C24F5600C24FB70207F49
:1002E5000A8019E4FF80150203C97F0B800E7F0C7D
:1002F500800A7F0D80067F0E80027F0F020316E5C0
:1003050034B4010CE4F5347BFF7A0079191203E368
:0103150022C5
:03000000020135C5
:0C013500787FE4F6D8FD75813A02017C69
:10002600E709F608DFFA8046E709F208DFFA803EBC
:1000360088828C83E709F0A3DFFA8032E309F608A9
:10004600DFFA8078E309F208DFFA807088828C8311
:10005600E309F0A3DFFA806489828A83E0A3F608C5
:10006600DFFA805889828A83E0A3F208DFFA804C9F
:1000760080D280FA80C680D4806980F28033801076
:1000860080A680EA809A80A880DA80E280CA8033DF
:1000960089828A83ECFAE493A3C8C582C8CCC58357
:1000A600CCF0A3C8C582C8CCC583CCDFE9DEE78027
:1000B6000D89828A83E493A3F608DFF9ECFAA9F0A6
:1000C600EDFB2289828A83ECFAE0A3C8C582C8CCFC
:1000D600C583CCF0A3C8C582C8CCC583CCDFEADE15
:1000E600E880DB89828A83E493A3F208DFF980CC77
:1000F60088F0EF60010E4E60C388F0ED2402B40470
:100106000050B9F582EB2402B4040050AF23234516
:06011600822390007673C5
:10011C00BB010689828A83E0225002E722BBFE02E1
:09012C00E32289828A83E4932214
:100141000203ACE493A3F8E493A34003F68001F225
:1001510008DFF48029E493A3F85407240CC8C333BF
:10016100C4540F4420C8834004F456800146F6DF8E
:10017100E4800B0102040810204080900350E47ECB
:10018100019360BCA3FF543F30E509541FFEE49383
:10019100A360010ECF54C025E060A840B8E493A34A
:1001A100FAE493A3F8E493A3C8C582C8CAC583CA75
:1001B100F0A3C8C582C8CAC583CADFE9DEE780BE2D
:01036F00008D
:00000001FF
