:101676000242000A024A0000024600000248000038
:04168600024400001A
:1017E300438920758DA3758BA3D2ABD2AFD28E2242
:0A181900E4F54AF54BF546F54722C9
:03001B000215D4F7
:1015D400C0E0C0D00549E54970020548D3954BE504
:1015E40048954A5004D2A58002C2A5E54964324513
:1015F400487004F548F5490545E54570020544D3AE
:101604009547E54495465004D2A28002C2A2E5451E
:10161400643245447004F544F5450526D0D0D0E045
:011624003293
:10177B00D3EF9400EE9400400D000000000000EF4A
:06178B001F70ED1E80EA54
:011791002235
:10168A0004103F800000040C420C000004083B9345
:10169A0074BC041840E000000414C0400000042296
:0F16AA0000000000061C000000000000012600E8
:1014E2007E007F407D007B017A007900120624AFE6
:1014F20013AE12AD11AC1090000C1205E7AF0FAE97
:101502000EAD0DAC0C9000101205E7AF0BAE0AAD9C
:1015120009AC089000141205E79000081205F33C8C
:1015220023D70AAF1BAE1AAD19AC189000381205BA
:10153200E7AF17AE16AD15AC1490003C1205E712DA
:1015420017BF1217E31213BA8F258E248D238C2214
:10155200E526C3946440EE7B007A007922121240A1
:05156200E4F52680E025
:0316B900017400B9
:1017BF00C2A6C2A7438901E4F58CF58AC28CD2AFC9
:0317CF00D2A9227A
:0C180100D2A67F057E0012177BC2A62233
:08000300E4F58CF58AD28C2291
:1013BA00E4F52AF529F528F527F52EF52DF52CF56E
:1013CA002BF532F531F530F52FF533E533C39403B8
:1013DA005067E4F57412180130A7FD12000320A724
:1013EA00FDC28CE574600280E2AF8CEFFEAD8A7CB0
:1013FA0000E42DFFEC3EFEE48F2A8E29F528F5271E
:10140A00AD28AC2712033A7B277AA07989783C1257
:10141A0001168F2E8E2D8D2C8C2BAF32AE31AD3026
:10142A00AC2FAB2EAA2DA92CA82B1200258F328EF9
:10143A00318D308C2F05338092E4FBFA7940784065
:0B144A00AF32AE31AD30AC2F12021FEC
:011455002274
:03000B00021823B5
:09182300758C00758A0005743211
:0D000E00C290C2928F80C293D293D29022F2
:0417D20012000EFFF4
:0D17D600C290D2928F80C293D293D2902203
:0E17F300AD07AC06AF041217D6AF050217D62D
:10108500D290121734C291121734D2911217347FAD
:101095002A12000EE4FF1217D61217D61217D67FA2
:1010A5009F1217D67F2B1217D21217D61217D67F7B
:1010B5007F1217D67FCB12000E7F391217D67F2CE1
:1010C5001217D6FF1217D67F341217D67F021217C2
:1010D500D67FCF1217D27FC11217D67F301217D6FF
:1010E5007FE812000E7F851217D6FF1217D67F787C
:1010F5001217D67FEA1217D21217D67FED12000EFD
:101105007F641217D67F031217D67F121217D67F68
:10111500811217D67FF712000E7F201217D67FC0D7
:1011250012000E7F231217D67FC112000E7F1012F8
:1011350017D67FC512000E7F3E1217D67F281217CD
:10114500D67FC712000E7F861217D67F3612000E85
:101155007F681217D67F3A12000E7F551217D67F79
:10116500B11217D27F181217D67FB612000E7F085C
:101175001217D67F821217D67F271217D67FF21243
:1011850017D27F2612000E7F011217D67FE01200BC
:101195000E7F0F1217D67F311217D67F2B1217D657
:1011A5007F0C1217D67F0E1217D67F081217D67F1F
:1011B5004E1217D67FF11217D67F371217D67F0733
:1011C5001217D67F101217D67F031217D67F0E126D
:1011D50017D67F091217D6FF1217D67FE11217D23D
:1011E5007F0E1217D67F141217D67F031217D67FDC
:1011F500111217D67F071217D67F311217D67FC166
:101205001217D67F481217D67F081217D67F0F12EE
:1012150017D67F0C1217D67F311217D67F361217C5
:10122500D67F0F1217D67F1112000E7F32FE1217CE
:0B123500387F2912000E7F2C02000EF3
:1016C3008E4C8F4D7F2A12000EE54CFF1217D6AFBA
:1016D3004D1217D6AF041217D6AF051217D67F2BAC
:1016E30012000EAF021217D6AF031217D6E552FF40
:0D16F3001217D6AF531217D67F2C02000E2F
:041700008E728F73E3
:1017040075520075539FE4FBFA7D9FFCFFFE121691
:10171400C3900000AF73AE721217F3A3E58264A006
:0F172400458370F00BBB00010AEB64A04A70E232
:011733002293
:0A1303008E548F558C568D57A903A8
:10130D0085545A85555BD3E5559490E5549400402A
:10131D00030213B9E5579490E55694004003021368
:10132D00B974E029F9E5552407FDE43554FCE5577A
:10133D00240FF553E43556F552AB57AA56AF55AEBB
:10134D00541216C3E4FBFAE975F010A42BFFE5F077
:10135D003AFE74D22FF58274063EF583E4937558E8
:10136D0000F559900000E55930E005E4FFFE8004DA
:10137D007FE07EFF1217F3E558C313F558E55913B7
:10138D00F5590555E55570020554A3E582640845E8
:10139D008370D3855A54855B550557E55770020503
:0C13AD00560BBB00010AEB64104A709B59
:0113B9002211
:101567008E648F658C668D678B688A69896AAB68BC
:10157700AA69A96A1204EFFB6052D3E5659490E566
:101587006494004010E4F564F56574102567F56709
:10159700E43566F566D3E5679490E56694004009FF
:1015A700E4F564F565F566F567AD67AC66AF65AEFE
:1015B7006412130374082565F565E43564F56474EE
:0D15C70001256AF56AE43569F56980A22204
:041734007F147E00A0
:10173800E4FDFCC3ED9FEC9E5015E4FBFA0BBB00E7
:0F174800010ABA01F8BB04F50DBD00010C80E4E5
:01175700226F
:1006D2000000000000000000000000000000000018
:1006E20000000008080808080808000018180000A0
:1006F20000486C241200000000000000000000000E
:100702000000002424247F1212127F121212000011
:100712000000081C2A2A0A0C1828282A2A1C080861
:1007220000000022251515152A58545454220000A1
:100732000000000C1212120A76252911916E000097
:100742000006060403000000000000000000000094
:100752000040201010080808080808101020400067
:1007620000020408081010101010100808040200FB
:100772000000000008086B1C1C6B08080000000049
:1007820000000000080808087F08080808000000A8
:100792000000000000000000000000000606040344
:1007A2000000000000000000FE0000000000000049
:1007B200000000000000000000000000060600002B
:1007C20000008040402020101008080404020200AB
:1007D20000000018244242424242424224180000D1
:1007E200000000080E08080808080808083E000073
:1007F2000000003C4242422020100804427E0000D9
:100802000000003C4242201820404042221C0000CE
:10081200000000203028242422227E20207800009C
:100822000000007E0202021A26404042221C000002
:10083200000000382402021A264242422418000014
:100842000000007E22221010080808080808000094
:100852000000003C4242422418244242423C000032
:10086200000000182442424264584040241C000008
:100872000000000000001818000000001818000016
:10088200000000000000000800000000000808044A
:10089200000000402010080402040810204000005C
:1008A2000000000000007F0000007F000000000048
:1008B200000000020408102040201008040200007A
:1008C2000000003C42424640201010001818000070
:1008D2000000001C225A555555552D42221C00007D
:1008E2000000000808181414243C224242E70000C9
:1008F2000000001F2222221E22424242221F00002A
:100902000000007C4242010101010142221C000060
:100912000000001F2242424242424242221F000085
:100922000000003F4212121E12120242423F000019
:100932000000003F4212121E1212020202070000C1
:100942000000003C2222010101712122221C000030
:10095200000000E7424242427E42424242E7000039
:100962000000003E0808080808080808083E0000C1
:100972000000007C10101010101010101010110F39
:100982000000007722120A0E0A12122222770000B9
:10099200000000070202020202020202427F00007D
:1009A20000000077363636362A2A2A2A2A6B0000B9
:1009B200000000E346464A4A525252626247000031
:1009C2000000001C2241414141414141221C0000E2
:1009D2000000003F424242423E0202020207000081
:1009E2000000001C2241414141414D53321C600034
:1009F2000000003F4242423E1212222242C7000041
:100A02000000007C4242020418204042423E0000A4
:100A12000000007F4908080808080808081C0000B0
:100A2200000000E74242424242424242423C00004F
:100A3200000000E74242222424141418080800008F
:100A42000000006B494949495555362222220000CF
:100A5200000000E7422424181818242442E700006A
:100A6200000000772222141408080808081C00005D
:100A72000000007E2120101008040442423F0000C2
:100A82000078080808080808080808080808780014
:100A92000000020204040808081010202020404030
:100AA200001E1010101010101010101010101E0048
:100AB20000384400000000000000000000000000B8
:100AC200000000000000000000000000000000FF25
:100AD2000006080000000000000000000000000006
:100AE200000000000000003C4278444242FC00004A
:100AF200000000030202021A26424242261A0000A5
:100B020000000000000000384402020244380000E5
:100B120000000060404040784442424264D80000F5
:100B2200000000000000003C427E0202423C000045
:100B3200000000F08808087E08080808083E000047
:100B4200000000000000007C22221C023C42423CC9
:100B5200000000030202023A4642424242E700001B
:100B62000000000C0C00000E08080808083E0000F7
:100B72000000003030000038202020202020221EDB
:100B82000000000302020272120A1612227700000B
:100B92000000000E0808080808080808083E0000BF
:100BA200000000000000007F9292929292B7000033
:100BB200000000000000003B4642424242E70000C3
:100BC200000000000000003C42424242423C000061
:100BD200000000000000001B26424242221E0207C3
:100BE200000000000000007844424242447840E0A5
:100BF20000000000000000774C040404041F000001
:100C0200000000000000007C42023C40423E000026
:100C1200000000000008083E08080808083000002C
:100C220000000000000000634242424262DC000019
:100C320000000000000000E742242414080800001D
:100C420000000000000000EB494955552222000037
:100C5200000000000000007624181818246E00001E
:100C620000000000000000E74224241418080807CE
:100C7200000000000000007E22100808447E0000F0
:100C820000C0202020202010202020202020C00072
:100C92001010101010101010101010101010101052
:100CA20000060808080808100808080808080600CE
:100CB2000C32C20000000000000000000000000032
:060EB4008B278A28892922
:100EBA009000081205639000101205B7120116ABD4
:100ECA0027AA28A92990000C1205B7120025C004E8
:100EDA00C005C006C007AB27AA28A9299000081296
:100EEA0005B7C000C001C002C003AB27AA28A929C0
:100EFA00900014120563D003D002D001D000120270
:100F0A001FD003D002D001D0001200258F2D8E2CC5
:100F1A008D2B8C2AAB27AA28A929900014120563C5
:100F2A00E4FBFAF97840120116AB27AA28A92990FE
:100F3A0000081205B712021FAB27AA28A929900098
:100F4A000C1205B71200258F318E308D2F8C2EABE7
:100F5A0027AA28A9299000081205B7C000C001C015
:100F6A0002C003AB27AA28A929900014120563D04E
:100F7A0003D002D001D00012021F8F358E348D3378
:100F8A008C32AB27AA28A929900024120563AB2D1D
:100F9A00AA2CA92BA82A120116AB27AA28A929909C
:100FAA0000341205B7120025C004C005C006C007E8
:100FBA00AB27AA28A929900028120563AB31AA30C9
:100FCA00A92FA82E120116A804A905AA06AB07D0B4
:100FDA0007D006D005D004120021C004C005C006FF
:100FEA00C007AB27AA28A92990002C120563AB35A4
:100FFA00AA34A933A832120116D003D002D001D0E4
:10100A0000120025AB27AA28A929900030120593BF
:10101A00900030120563C004C005C006C007AB27A4
:10102A00AA28A92990003C1205638F3D8E3C8D3B6E
:10103A008C3A9000381205638F418E408D3F8C3E6A
:10104A00D007D006D005D004121625AB27AA28A9A6
:10105A0029900030120593900030120563900034F5
:10106A0012059390002812056390002C12059390A4
:0B107A0000241205639000280205937B
:101240009000001205F341A0000012054390000435
:101250001205E7900004E0F8A3E0F9A3E0FAA3E0A8
:10126000FB900000E0FCA3E0FDA3E0FEA3E0FF1282
:1012700000219000241205E77B017A007900120E0C
:10128000B4900030E0FCA3E0FDA3E0FEA3E0FF90FB
:1012900000571205E7E4FFFEFD7C40900024E0F8D3
:1012A000A3E0F9A3E0FAA3E0FB1202BC600C400A41
:1012B000C2A3D2A4C2A1D2A08024900024E0FCA3A7
:1012C000E0FDA3E0FEA3E0FF120329E4FBFAF978B6
:1012D000401202BC5029D2A3C2A4D2A1C2A0900045
:1012E00057E0FCA3E0FDA3E0FEA3E0FF120378E5D6
:1012F000432FF54BE5423EF54AF546854B47221212
:021300001819BA
:0113020022C8
:101625008F398E388D378C36AF3DAE3CAD3BAC3AFD
:10163500AB39AA38A937A8361202BC500AAF3DAE5D
:101645003CAD3BAC3A8029AF41AE40AD3FAC3EAB83
:1016550039AA38A937A8361202BC600C400AAF4136
:10166500AE40AD3FAC3E8008AF39AE38AD37AC3695
:011675002252
:101792000000000000000000000000000000000047
:0717A2000000000000000040
:0616BC00046B4120000058
:1017A90075985075CBFF75CDFF75CAFD75CCFD7564
:0617B900C83475A890225F
:0C180D00C2AC8F993099FDC299D2AC2278
:061758008B6F8A7089719D
:10175E00E4FEEEC39D5015AB6FAA70A9718E827513
:0C176E008300120508FF12180D0E80E623
:01177A00224C
:100CC20078407C007D017BFF7A1779927E007F1746
:100CD2001204C9E4F55CF55DAF6EAE6DAD6CAC6B44
:100CE2001203788E5E8F5FAF25AE24AD23AC221245
:100CF20003788E608F61900030E0FCA3E0FDA3E0FA
:100D0200FEA3E0FF1203788E628F63AF5C055C7412
:100D1200402FF582E43400F58374AAF0AF5C055CE1
:100D220074402FF582E43400F58374AAF0AF5C05B9
:100D32005C74402FF582E43400F5837402F0AF5CFA
:100D4200055C74402FF582E43400F583E4F0AF5C77
:100D5200055C74402FF582E43400F583E55FF0AF63
:100D62005C055C74402FF582E43400F583E55EF0A7
:100D7200AF5C055C74402FF582E43400F583E561D5
:100D8200F0AF5C055C74402FF582E43400F583E536
:100D920060F0AF5C055C74402FF582E43400F583AB
:100DA200E563F0AF5C055C74402FF582E43400F536
:100DB20083E562F0AF5C055C74402FF582E4340099
:100DC200F583E4F0AF5C055C74402FF582E43400F7
:100DD200F583E4F0AF5C055C74402FF582E43400E7
:100DE200F583E4F0AF5C055C74402FF582E43400D7
:100DF200F583E4F0AF5C055C74402FF582E43400C7
:100E0200F583E4F0AF5C055C74402FF582E43400B6
:100E1200F583E4F0AF5C055C74402FF582E43400A6
:100E2200F583E4F0AF5C055C74402FF582E4340096
:100E3200F583E4F0AF5C055C74402FF582E4340086
:100E4200F583E4F0AF5C055C74402FF582E4340076
:100E5200F583E4F0AF5C055C74402FF582E4340066
:100E6200F583E4F0AF5C055C74402FF582E4340056
:100E7200F583E4F0E55C24FC900043F0E4FFEFC36B
:100E8200955C501274402FF582E43400F583E0251E
:100E92005DF55D0F80E8AF5C055C74402FF582E480
:100EA2003400F583E55DF07B017A007940AD5C02A8
:020EB2001758CF
:10001E000203E4E86480F8E933E83360110460F029
:10002E00ED33EC337009E8FCE9FDEAFEEBFF220448
:10003E0060DED3EB9FEA9EE99DE8C2E78CF0C2F743
:10004E0095F0400CE8CCF8E9CDF9EACEFAEBCFFB0F
:10005E001203AF85D0F05804700320D5B3E80470B6
:10006E00075002B2D50203EE92D5EC0460F7E4CC51
:10007E00C0E0C398F8603B94186008400DD0E0FBD8
:10008E000203C6E4FBFAC9FC8028E830E406E4C9A2
:10009E00FBE4CAFCE830E305E4C9CACBFCE854072C
:1000AE006010F8C3E913F9EA13FAEB13FBEC13FC37
:1000BE00D8F130F52FC3E49CFCEF9BFFEE9AFEEDDA
:1000CE0099FDD0E0FBEF4E4D4C701222DB03020384
:1000DE00EBEC2CFCEF33FFEE33FEED33FDED30E7B2
:1000EE00EB0203C6EF2BFFEE3AFEED39FDD0E0FB3F
:1000FE0050130BBB00030203EEED13FDEE13FEEFE8
:08010E0013FFEC13FC0203C611
:10011600EC4D6011E8497017ED33EC3304600DE4E3
:10012600FCFFFEFD22E933E8330470F80203E41213
:1001360003AF58046009E4CC248150062850090214
:1001460003EE2840030203EBC0E0EB4A7044B9809B
:1001560006D0E0FB0203DAEF4E701CBD8008EBFF11
:10016600EAFEE9FD80EBE98DF0A4FEE5F00201FF71
:10017600E9CDF9EAFEEBFFEF89F0A4FCE5F0CE89C4
:10018600F0A42EFFE435F0CD89F0A42DFEE435F081
:100196008067EF4E7005BD80D780C3EF8BF0A4ACAF
:1001A600F0EE8BF0A42CFCE435F0F8EF8AF0A42CEA
:1001B600E5F038FCE433CB8DF0A42CFCE5F03BF8FD
:1001C600EE8AF0A42CFCE5F038F8E433CF89F0A4ED
:1001D6002CFCE5F038CF3400CE89F0A42FFFE5F0F3
:1001E6003EFEE433C98DF0A42EFEE5F039CD8AF04B
:1001F600A42FFFE5F03EFEE43DFD33D0E0FB5007C3
:100206000BBB000F0203EEEC2CFCEF33FFEE33FECC
:06021600ED33FD0203C6FA
:10021C000203EEEC5D046005E8590470030203E48C
:10022C001203AF580460F6EC4860F2EC7004FDFE6B
:10023C00FF22C860DB2481C85009C39860025006B5
:10024C000203EB9850CAF582E9294B4A7005AB8240
:10025C000203DA75F0007C1A7880C3EF9BEE9AEDFE
:10026C0099400DC3EF9BFFEE9AFEED99FDE842F02D
:10027C00DC23ACF0D0E0FFD0E0FED0E0FDAB822080
:10028C00E7101BEB60BAEC2CFCEF33FFEE33FEED0A
:10029C0033FD0203C6E803F830E705C0F075F00043
:1002AC00EF2FFFEE33FEED33FD40B830E7C280AAEE
:1002BC0074F8CC6480CCC86480C8F582046043C3F5
:1002CC00EB9FF5F0EA9E42F0E99D42F0E89C45F088
:1002DC0060305018E5825FFFE582F42B5582FB50AD
:1002EC00210ABA001D09B90019088016E5825BFBCA
:1002FC00E582F42F5582FF50090EBE00050DBD009E
:10030C00010CC3EB9FF5F0EA9E42F0E99D42F0E848
:0D031C009C45F06007CC4820E701B3EC22BF
:10032900ED33EC33600A047003BD8004ECB2E7FCE2
:0103390022A1
:10033A0075F020800E75F010800575F0087D007E3E
:10034A00007F003392D530D503120535EC334010C7
:10035A00EF33FFEE33FEED33FDEC33FCD5F0ED2247
:0E036A00E5F0247EA2D513CC92E7CDCEFF2283
:10037800EDD2E7CD33EC3392D524814006E4FFFE7D
:10038800FDFC22FCE4CFCECDCC24E0501174FF80DC
:10039800EDC3CC13CCCD13CDCE13CECF13CF047079
:0703A800F030D5DE0205353F
:1003AF00E9D2E7C933E833F892D5EDD2E7CD33EC94
:0703BF0033FC5002B2D5220D
:1003C600EC30E7100FBF000C0EBE00080DBD000498
:1003D6000BEB6014A2D5EB13FCED92E7FD2274FF44
:1003E600FCFDFEFF22E480F8A2D574FF13FC7D809D
:0303F600E480EFB1
:0300000002145691
:0C145600787FE4F6D8FD75817402149DC7
:1003F900E709F608DFFA8046E709F208DFFA803EE6
:1004090088828C83E709F0A3DFFA8032E309F608D2
:10041900DFFA8078E309F208DFFA807088828C833A
:10042900E309F0A3DFFA806489828A83E0A3F608EE
:10043900DFFA805889828A83E0A3F208DFFA804CC8
:1004490080D280FA80C680D4806980F2803380109F
:1004590080A680EA809A80A880DA80E280CA803308
:1004690089828A83ECFAE493A3C8C582C8CCC58380
:10047900CCF0A3C8C582C8CCC583CCDFE9DEE78050
:100489000D89828A83E493A3F608DFF9ECFAA9F0CF
:10049900EDFB2289828A83ECFAE0A3C8C582C8CC25
:1004A900C583CCF0A3C8C582C8CCC583CCDFEADE3E
:1004B900E880DB89828A83E493A3F208DFF980CCA0
:1004C90088F0EF60010E4E60C388F0ED2402B40499
:1004D9000050B9F582EB2402B4040050AF23234540
:0604E90082239004497318
:1004EF00BB010689828A83E0225002E722BBFE020B
:0904FF00E32289828A83E493223E
:10050800BB010CE58229F582E5833AF583E02250A8
:1005180006E92582F8E622BBFE06E92582F8E222F2
:0D052800E58229F582E5833AF583E493220C
:0E053500C3E49FFFE49EFEE49DFDE49CFC22D7
:10054300BB010789828A8302065C5005E9F802062B
:1005530050BBFE05E9F802066889828A83020674A5
:10056300BB010DE58229F582E5833AF58302065C3A
:100573005007E92582F8020650BBFE07E92582F8F9
:10058300020668E58229F582E5833AF5830206745B
:10059300BB010DE58229F582E5833AF5830205E780
:1005A3005007E92582F80206BABBFE07E92582F85F
:0405B3000206C62254
:1005B700BB010DE58229F582E5833AF583020691B1
:1005C7005007E92582F8020684BBFE07E92582F871
:1005D70002069DE58229F582E5833AF5830206AA9C
:0C05E700ECF0A3EDF0A3EEF0A3EFF02287
:1005F300A8828583F0D083D08212060A12060A12DB
:10060300060A12060AE473E493A3C583C5F0C583FF
:10061300C8C582C8F0A3C583C5F0C583C8C582C851
:0106230022B4
:10062400EF4E6012EF60010EEDBB010B89828A83ED
:10063400F0A3DFFCDEFA2289F05007F709DFFCA9FA
:0C064400F022BBFEFCF309DFFCA9F02251
:101462000214E2E493A3F8E493A34003F68001F2AA
:1014720008DFF48029E493A3F85407240CC8C3338B
:10148200C4540F4420C8834004F456800146F6DF5A
:10149200E4800B0102040810204080901676E47E5E
:1014A200019360BCA3FF543F30E509541FFEE4934F
:1014B200A360010ECF54C025E060A840B8E493A316
:1014C200FAE493A3F8E493A3C8C582C8CAC583CA41
:1014D200F0A3C8C582C8CAC583CADFE9DEE780BEF9
:0116C2000027
:0C065000E6FC08E6FD08E6FE08E6FF22D6
:0C065C00E0FCA3E0FDA3E0FEA3E0FF2211
:0C066800E2FC08E2FD08E2FE08E2FF22CE
:10067400E493FC740193FD740293FE740393FF22CC
:0D068400E6FB08E6F908E6FA08E6CBF822E6
:0C069100E0F8A3E0F9A3E0FAA3E0FB22EC
:0D069D00E2FB08E2F908E2FA08E2CBF822DD
:1006AA00E493F8740193F9740293FA740393FB22A6
:0C06BA00ECF608EDF608EEF608EFF6226C
:0C06C600ECF208EDF208EEF208EFF22270
:00000001FF
