:100CC60020202020004C694C692020202020202054
:100CD60020202020202020004D6F6E2100547565B5
:100CE60073210057656421200054687572210046FF
:100CF600726921202000536174210053756E210012
:100D060044656570204E69676874215E5F5E2020C9
:100D1600202000476F6F64204D6F726E696E6721E9
:100D26005E5F5E202000476F6F64204166746572C7
:100D36006E6F6F6E215E5F5E00476F6F6420457653
:100D4600656E696E67215E5F5E2020202000546913
:100D56006D6520546F20536C656570215E5F5E2063
:100D66000049204C6F766520596F75004E6F2061E3
:100D76006E64732C696673206F72206275747300DB
:100D8600202020202020202020202020202020205D
:100D9600202000202020202020004861707079202B
:100DA60042697274686461795E5F5E20004E6577A1
:100DB600205765656B2C4E65772053746172210050
:100DC60042656C6965766520496E205973656C6667
:100DD600212020002020536C656570205768656EC1
:100DE60020546972656400536D696C6520576865A7
:100DF6006E204177616B6520200057697468204139
:100E06006C6C204D79204865617274200054616BCA
:100E1600652043617265204F66205973656C6600D4
:100E26004D697373696E6720596F75204E6F772E03
:100E36002E2E0042652048617070792045766572D5
:060E4600796461792100CE
:0917F0000738505420271005179A
:1016210012096512180A7FE07EFF1215EDE545707B
:10163100161217967BFF7A0C79C67D207C007F05F8
:101641007E0012140D80031210ED120B2C120E4CA1
:0216510080DB3C
:100B2C007515027B147A00E4FDFC7F05FE12147A25
:100B3C00E53E5470C4540F75F00AA4FFAEF0E53EC8
:100B4C00540F7C002FF537EC3EF536751502AB379C
:100B5C00FAE4FD7F15FE12147A7B2DE4FDFC7F2553
:100B6C00FE1211BAE53C5470C4540F75F00AA4FF80
:100B7C00AEF0E53C540F7C002FF533EC3EF53275AE
:100B8C001502AB33FAE4FD7F2DFE12147A7B2DE4B3
:100B9C00FDFC7F3DFE1211BAE53B5470C4540F7539
:100BAC00F00AA4FFAEF0E53B540F7C002FF531ECBE
:100BBC003EF530751502AB31FAE4FD7F43FE12149D
:100BCC007AE533640B4532700DE5316404453070C1
:100BDC0005753F018003E4F53FE53D5470C4540FA7
:100BEC0075F00AA4FFAEF0E53D540F7C002FF535EF
:100BFC00EC3EF534AF35FE120F9DE53A5470C454FB
:100C0C000F75F00AA4FFAEF0E53A540F7C002FF5F7
:100C1C002FEC3EF52E751502AB2FFA7D107F057E5D
:100C2C000012147AAF2FAE2E1213867B3A7D107CF5
:100C3C00007F157E001211BAE5395470C4540F753B
:100C4C00F00AA4FFAEF0E539540F7C002FF52DEC23
:100C5C003EF52C751502AB2DFA7D107F1D7E001212
:100C6C00147A7B3A7D107C007F2D7E001211BAE540
:100C7C00385470C4540F75F00AA4FFAEF0E5385424
:100C8C000F7C002FF52BEC3EF52A751502AB2BFAD9
:100C9C007D107F357E0012147A7BFF7A0D79677D8B
:100CAC00207C007F287E0012140D7BFF7A0D797258
:0A0CBC007D307C00E4FFFE02140D01
:100F9D008E088F09E53FB4011A7BFF7A0C79CB7D62
:100FAD00407C007F057E0012140D7BFF7A0D79A029
:100FBD000210A77BFF7A0C79C67D407C007F057EF1
:100FCD000012140DE50860030210ECE50914B407D6
:100FDD000040030210EC900FF175F003A4C58325BA
:100FED00F0C5837302100602101E02103502106444
:100FFD000210920210AF0210CC7BFF7A0C79DEE466
:10100D00FDFC7F6BFE12140D7BFF7A0D79B3021080
:10101D00A77BFF7A0C79E3E4FDFC7F6BFE12140DC8
:10102D007BFF7A0D79C680727BFF7A0C79E9E4FD3E
:10103D00FC7F6BFE12140D7BFF7A0D79DA7D507CEF
:10104D00007F057E0012140D7BFF7A0D79ED7D601A
:10105D007C007F100210E77BFF7A0C79EFE4FDFC3A
:10106D007F6BFE12140D7BFF7A0E79007D507C0094
:10107D007F057E0012140D7BFF7A0D79867D607CD5
:10108D00007F0580557BFF7A0C79F5E4FDFC7F6BC5
:10109D00FE12140D7BFF7A0E79137D507C007F05B7
:1010AD0080387BFF7A0C79FCE4FDFC7F6BFE12141B
:1010BD000D7BFF7A0E79267D507C007F05801B7B92
:1010CD00FF7A0D7901E4FDFC7F6BFE12140D7BFFA1
:1010DD007A0E79397D507C007F057E0012140D2229
:10138600EE7072EFB41700506C901396F82828731D
:101396000213DB0213DB0213DB0213DB0213DB0295
:1013A60013DB0213E30213E30213E30213E3021354
:1013B600E30213E30213EB0213EB0213EB0213EB4C
:1013C6000213EB0213EB0213F30213F30213F302FD
:1013D60013F30213F37BFF7A0D7906801E7BFF7AE7
:1013E6000D791980167BFF7A0D792C800E7BFF7A9A
:1013F6000D793F80067BFF7A0D79547D707C007FE6
:07140600057E0012140D2207
:0D17E300C2A7C2A48F80C2A3D2A3D2A722A6
:0417C4001217E3FF16
:0D17C800C2A7D2A48F80C2A3D2A3D2A722B1
:0E17D500AD07AC06AF041217C8AF050217C867
:10096500D2A77F147E00121720C2A57F967E0012A3
:100975001720D2A57F967E001217207F2A1217E333
:10098500E4FF1217C81217C81217C87F9F1217C89D
:100995007F2B1217C41217C81217C87F7F1217C8EA
:1009A5007FCB1217E37F391217C87F2C1217C8FFA8
:1009B5001217C87F341217C87F021217C87FCF12CB
:1009C50017C47FC11217C87F301217C87FE81217E6
:1009D500E37F851217C8FF1217C87F781217C87FE3
:1009E500EA1217C41217C87FED1217E37F641217B6
:1009F500C87F031217C87F121217C87F811217C844
:100A05007FF71217E37F201217C87FC01217E37F05
:100A1500231217C87FC11217E37F101217C87FC5AD
:100A25001217E37F3E1217C87F281217C87FC71217
:100A350017E37F861217C87F361217E37F681217F0
:100A4500C87F3A1217E37F551217C87FB11217C432
:100A55007F181217C87FB61217E37F081217C87FD1
:100A6500821217C87F271217C87FF21217C47F2674
:100A75001217E37F011217C87FE01217E37F0F12E9
:100A850017C87F311217C87F2B1217C87F0C121792
:100A9500C87F0E1217C87F081217C87F4E1217C8D5
:100AA5007FF11217C87F371217C87F071217C87F43
:100AB500101217C87F031217C87F0E1217C87F09B7
:100AC5001217C8FF1217C87FE11217C47F0E12173D
:100AD500C87F141217C87F031217C87F111217C8D1
:100AE5007F071217C87F311217C87FC11217C87F39
:100AF500481217C87F081217C87F0F1217C87F0C36
:100B05001217C87F311217C87F361217C87F0F1208
:100B150017C87F111217E37F78FE1217207F29125D
:070B250017E37F2C0217E328
:1015B0008E228F237F2A1217E3E522FF1217C8AF6E
:1015C000231217C8AF041217C8AF051217C87F2B14
:1015D0001217E3AF021217C8AF031217C8E528FFAE
:0D15E0001217C8AF291217C87F2C0217E39D
:0415ED008E088F09CC
:1015F10075280075299FE4FBFA7D9FFCFFFE1215FB
:10160100B0900000AF09AE081217D5A3E58264A01F
:0F161100458370F00BBB00010AEB64A04A70E246
:0116200022A7
:0A11BA008E1A8F1B8C1C8D1DA903DB
:1011C400851A20851B21D3E51B9490E51A940040D1
:1011D40003021270E51D9490E51C94004003021272
:1011E4007074E029F9E51B2407FDE4351AFCE51DBC
:1011F400240FF529E4351CF528AB1DAA1CAF1BAE42
:101204001A1215B0E4FBFAE975F010A42BFFE5F00F
:101214003AFE74062FF58274003EF583E493751E3E
:1012240000F51F900000E51F30E005E4FFFE800498
:101234007FE07EFF1217D5E51EC313F51EE51F13CD
:10124400F51F051BE51B7002051AA3E5826408451A
:101254008370D385201A85211B051DE51D700205A9
:0C1264001C0BBB00010AEB64104A709BDD
:01127000225B
:10140D008E0A8F0B8C0C8D0D8B0E8A0F8910AB0EE7
:10141D00AA0FA9101208B3FB6052D3E50B9490E507
:10142D000A94004010E4F50AF50B7410250DF50D26
:10143D00E4350CF50CD3E50D9490E50C94004009C2
:10144D00E4F50AF50BF50CF50DAD0DAC0CAF0BAECF
:10145D000A1211BA7408250BF50BE4350AF50A7456
:0D146D00012510F510E4350FF50F80A222C7
:1017B0007E01AC051DEC6007EE8FF0A4FE80F3AF58
:0317C000067E00A2
:0117C3002203
:0C147A008E0F8F108C118D128A138B14B2
:10148600E4F516F517C3E5179515E5169400504EC5
:10149600C3E515951714FD7F0A1217B0AC13AD14EA
:1014A600CFCDCFCECCCE1208CC7C007D0A1208CC94
:1014B6008C188D19E517AE167803C333CE33CED804
:1014C600F92510FFE50F3EFEE5192430FBAD12AC01
:0E14D600111211BA0517E51770AB051680A7A5
:0114E40022E5
:10172000E4FDFCC3ED9FEC9E5015E4FBFA0BBB00FF
:0F173000010ABA01F8BB04F50DBD00010C80E4FD
:01173F002287
:1000060000000000000000000000000000000000EA
:100016000000000808080808080800001818000072
:1000260000486C24120000000000000000000000E0
:100036000000002424247F1212127F1212120000E4
:100046000000081C2A2A0A0C1828282A2A1C080834
:1000560000000022251515152A5854545422000074
:100066000000000C1212120A76252911916E00006A
:100076000006060403000000000000000000000067
:10008600004020101008080808080810102040003A
:1000960000020408081010101010100808040200CE
:1000A6000000000008086B1C1C6B0808000000001C
:1000B60000000000080808087F080808080000007B
:1000C6000000000000000000000000000606040317
:1000D6000000000000000000FE000000000000001C
:1000E60000000000000000000000000006060000FE
:1000F600000080404020201010080804040202007E
:1001060000000018244242424242424224180000A3
:10011600000000080E08080808080808083E000045
:100126000000003C4242422020100804427E0000AB
:100136000000003C4242201820404042221C0000A1
:10014600000000203028242422227E20207800006F
:100156000000007E0202021A26404042221C0000D5
:10016600000000382402021A2642424224180000E7
:100176000000007E22221010080808080808000067
:100186000000003C4242422418244242423C000005
:10019600000000182442424264584040241C0000DB
:1001A60000000000000018180000000018180000E9
:1001B600000000000000000800000000000808041D
:1001C600000000402010080402040810204000002F
:1001D6000000000000007F0000007F00000000001B
:1001E600000000020408102040201008040200004D
:1001F6000000003C42424640201010001818000043
:100206000000001C225A555555552D42221C00004F
:100216000000000808181414243C224242E700009B
:100226000000001F2222221E22424242221F0000FC
:100236000000007C4242010101010142221C000033
:100246000000001F2242424242424242221F000058
:100256000000003F4212121E12120242423F0000EC
:100266000000003F4212121E121202020207000094
:100276000000003C2222010101712122221C000003
:10028600000000E7424242427E42424242E700000C
:100296000000003E0808080808080808083E000094
:1002A6000000007C10101010101010101010110F0C
:1002B6000000007722120A0E0A121222227700008C
:1002C600000000070202020202020202427F000050
:1002D60000000077363636362A2A2A2A2A6B00008C
:1002E600000000E346464A4A525252626247000004
:1002F6000000001C2241414141414141221C0000B5
:100306000000003F424242423E0202020207000053
:100316000000001C2241414141414D53321C600006
:100326000000003F4242423E1212222242C7000013
:100336000000007C4242020418204042423E000077
:100346000000007F4908080808080808081C000083
:10035600000000E74242424242424242423C000022
:10036600000000E742422224241414180808000062
:100376000000006B494949495555362222220000A2
:10038600000000E7422424181818242442E700003D
:10039600000000772222141408080808081C000030
:1003A6000000007E2120101008040442423F000095
:1003B60000780808080808080808080808087800E7
:1003C6000000020204040808081010202020404003
:1003D600001E1010101010101010101010101E001B
:1003E600003844000000000000000000000000008B
:1003F600000000000000000000000000000000FFF8
:1004060000060800000000000000000000000000D8
:10041600000000000000003C4278444242FC00001C
:10042600000000030202021A26424242261A000077
:1004360000000000000000384402020244380000B8
:1004460000000060404040784442424264D80000C8
:10045600000000000000003C427E0202423C000018
:10046600000000F08808087E08080808083E00001A
:10047600000000000000007C22221C023C42423C9C
:10048600000000030202023A4642424242E70000EE
:100496000000000C0C00000E08080808083E0000CA
:1004A6000000003030000038202020202020221EAE
:1004B6000000000302020272120A161222770000DE
:1004C6000000000E0808080808080808083E000092
:1004D600000000000000007F9292929292B7000006
:1004E600000000000000003B4642424242E7000096
:1004F600000000000000003C42424242423C000034
:10050600000000000000001B26424242221E020795
:10051600000000000000007844424242447840E077
:1005260000000000000000774C040404041F0000D3
:10053600000000000000007C42023C40423E0000F9
:10054600000000000008083E0808080808300000FF
:1005560000000000000000634242424262DC0000EC
:1005660000000000000000E74224241408080000F0
:1005760000000000000000EB49495555222200000A
:10058600000000000000007624181818246E0000F1
:1005960000000000000000E74224241418080807A1
:1005A600000000000000007E22100808447E0000C3
:1005B60000C0202020202010202020202020C00045
:1005C6001010101010101010101010101010101025
:1005D60000060808080808100808080808080600A1
:1005E6000C32C20000000000000000000000000005
:10177B007E01E4FDEF5E24FF92A1EE25E0FED2A2F6
:0A178B0000C2A2000DBD08ECD2A1BF
:011795002231
:10175E00AC05C2A000C2A200D2A000EF25E04480DA
:0D176E00FF12177BAF0412177BC2A00022F0
:1016AD00E4F97F01FEFDFC30A103EF4201EF25E0DF
:1016BD00FFEE33FED2A200C2A2000DBD00010CED63
:0716CD0064074C70E2AF015D
:0116D40022F3
:1016FC00E4FEC2A000C2A200D2A000EF25E044810B
:10170C00FF12177B1216ADC2A000D2A200C2A1001C
:03171C00D2A10057
:01171F0022A7
:10165300C2A0C2A2E4FF1216FCAB07EB30E018E411
:10166300FD7F0712175EE4FBAF0374382BF8E6FD2A
:0E16730012175E0BBB07F17D807F0702175E2A
:10179600E4FBFAAF031216FC74382BF8A6070BBB52
:0917A60000010AEB64074A70EA35
:0117AF002217
:1016D5006D69616F00202020200066656E007368CB
:1016E500690020202000726900797565007A686FAD
:0716F50075006E69616E00D3
:1012FD00EFB40700400302138590130DF8282873EF
:10130D0002132202132A02134302134B0213640227
:10131D00136C0213747BFF7A1679D580507BFF7A9C
:10132D001679DA7D207C007F057E0012140D7BFF7F
:10133D007A1679DF80377BFF7A1679E3802F7BFF72
:10134D007A1679E77D207C007F057E0012140D7BD7
:10135D00FF7A1679EB80167BFF7A1679EE800E7B7D
:10136D00FF7A1679F280067BFF7A1679F77D207C5D
:09137D00007F057E0012140D2210
:07180A00D288D2A8D2AF2260
:030003000214E5FF
:1014E500C0E0C0F0C083C082C0D075D000C000C0CD
:1014F50001C002C003C004C005C006C0077F057E49
:101505000012172020B2096345FF754400121653D7
:10151500D007D006D005D004D003D002D001D0002A
:0B152500D0D0D082D083D0F0D0E032D4
:1010ED0020B1337F057E0012172020B1110544AFCA
:1010FD00441212FDE544C394074003E4F544E5466C
:10110D00C39405500E20B10B7F057E0012172005EC
:10111D004680EBE4F54630B0030211B97F057E0041
:10112D0012172030B0030211B974382544F8067433
:10113D00382544F8E6540FD394094004740626F676
:10114D00E544C39402500D74382544F8E6C3946108
:10115D004002E4F6E544B4020B2438F8E6C39424C7
:10116D004002E4F6E544B4030B2438F8E6C39432A8
:10117D0040027601E544B4040B2438F8E6C3941319
:10118D0040027601E544B4050B2438F8E6C3940813
:10119D0040027601E546C39405500E20B00B7F0545
:0D11AD007E00121720054680EBE4F5462277
:10174000D3EF9400EE940040147D6E7C00ED1D708C
:0D175000011CED4C70F7EF1F70E61E80E3EA
:01175D002269
:10168100C2A67F467E00EF1FAC0670011E4C70F6AD
:10169100D2A6E4FEFF30A6110FBF00010ED3EF94D6
:0B16A10088EE941340EF7F00227F01D1
:0116AC00221B
:0C1530001216817F017E001217407FCC54
:10153C00E4FBFAC2A60510E5107002050FEF13923A
:10154C00A6750F00751006E5101510AC0F7002157E
:10155C000F4C70F3D2A6EFC313FF0BBB00010AEBC9
:05156C0064084A70CE86
:011571002257
:101572007D087C00C2A60FBF0000D2A60FBF0000EC
:101582000FBF0000A2A6E433C43333335480FBE917
:10159200C3134BF97E007F04EF1FAA0670011E4A97
:0D15A20070F6ED1D70011CED4C70C9AF011D
:0115AF002219
:0817FA001215307F4402153C7A
:081802001215307FBE02153CF7
:100E4C00E4F508F5091217FA1218021215728F0E32
:100E5C001215727508008F09E509750900F508E58A
:100E6C000E4209C3E50864809480501D7B2D7D10D3
:100E7C007C007F557E001211BAE509150970021528
:100E8C00086309FF6308FF800D7B2B7D107C007FBE
:100E9C00557E001211BAAC08AD09EC1207F98F0D92
:100EAC008E0C8D0B8C0AE4FFFE7DC87C40AB0DAA2A
:100EBC000CA90BA80A1206EEE4FBFAF9783F12050E
:100ECC00FD1208328E088F09AE08AF097C277D1001
:100EDC001209217E037FE8CFCDCFCECCCE120921D3
:100EEC008F40AE08AF097C037DE81209217E007F9C
:100EFC0064CFCDCFCECCCE1209218F41AE08AF0935
:100F0C007C007D641209217E007F0ACFCDCFCECC30
:100F1C00CE1209218F42AE08AF097C007D0A12095E
:100F2C00218D43E540FB3395E0FA7515017D107C6E
:100F3C00007F5D7E0012147AE541FB3395E0FA7573
:100F4C0015017D107C007F657E0012147A7B2E7D4E
:100F5C00107C007F6D7E001211BAE542FB3395E0E8
:100F6C00FA7515017D107C007F757E0012147AE5F0
:100F7C0043FB3395E0FA7515017D107C007F7D7E77
:100F8C000012147A7B437D107C007F857E00021159
:010F9C00BA9A
:1005F60002089EE86480F8E933E83360110460F08D
:10060600ED33EC337009E8FCE9FDEAFEEBFF22046A
:1006160060DED3EB9FEA9EE99DE8C2E78CF0C2F765
:1006260095F0400CE8CCF8E9CDF9EACEFAEBCFFB31
:1006360012086985D0F05804700320D5B3E8047019
:10064600075002B2D50208A892D5EC0460F7E4CCB4
:10065600C0E0C398F8603B94186008400DD0E0FBFA
:10066600020880E4FBFAC9FC8028E830E406E4C905
:10067600FBE4CAFCE830E305E4C9CACBFCE854074E
:100686006010F8C3E913F9EA13FAEB13FBEC13FC59
:10069600D8F130F52FC3E49CFCEF9BFFEE9AFEEDFC
:1006A60099FDD0E0FBEF4E4D4C701222DB030208A1
:1006B600A5EC2CFCEF33FFEE33FEED33FDED30E71A
:1006C600EB020880EF2BFFEE3AFEED39FDD0E0FBA2
:1006D60050130BBB00030208A8ED13FDEE13FEEF4B
:0806E60013FFEC13FC02088075
:1006EE00EC4D6011E8497017ED33EC3304600DE406
:1006FE00FCFFFEFD22E933E8330470F802089E1277
:10070E00086958046009E4CC248150062850090277
:10071E0008A82840030208A5C0E0EB4A7044B9803F
:10072E0006D0E0FB020894EF4E701CBD8008EBFF74
:10073E00EAFEE9FD80EBE98DF0A4FEE5F00207D7B5
:10074E00E9CDF9EAFEEBFFEF89F0A4FCE5F0CE89E6
:10075E00F0A42EFFE435F0CD89F0A42DFEE435F0A3
:10076E008067EF4E7005BD80D780C3EF8BF0A4ACD1
:10077E00F0EE8BF0A42CFCE435F0F8EF8AF0A42C0C
:10078E00E5F038FCE433CB8DF0A42CFCE5F03BF81F
:10079E00EE8AF0A42CFCE5F038F8E433CF89F0A40F
:1007AE002CFCE5F038CF3400CE89F0A42FFFE5F015
:1007BE003EFEE433C98DF0A42EFEE5F039CD8AF06D
:1007CE00A42FFFE5F03EFEE43DFD33D0E0FB5007E5
:1007DE000BBB000F0208A8EC2CFCEF33FFEE33FE30
:0607EE00ED33FD0208805E
:1007F40075F020800E75F010800575F0087D007E80
:10080400007F003392D530D503120957EC334010E2
:10081400EF33FFEE33FEED33FDEC33FCD5F0ED2288
:0E082400E5F0247EA2D513CC92E7CDCEFF22C4
:10083200EDD2E7CD33EC3392D524814006E4FFFEBE
:10084200FDFC22FCE4CFCECDCC24E0501174FF801D
:10085200EDC3CC13CCCD13CDCE13CECF13CF0470BA
:07086200F030D5DE0209575A
:10086900E9D2E7C933E833F892D5EDD2E7CD33ECD5
:0708790033FC5002B2D5224E
:10088000EC30E7100FBF000C0EBE00080DBD0004D9
:100890000BEB6014A2D5EB13FCED92E7FD2274FF85
:1008A000FCFDFEFF22E480F8A2D574FF13FC7D80DE
:0308B000E480EFF2
:0300000002127178
:0C127100787FE4F6D8FD7581460212B8C3
:1008B300BB010689828A83E0225002E722BBFE0243
:0908C300E32289828A83E4932276
:1008CC00BC000BBE0029EF8DF084FFADF022E4CC10
:1008DC00F875F008EF2FFFEE33FEEC33FCEE9DECD9
:1008EC00984005FCEE9DFE0FD5F0E9E4CEFD22ED1F
:1008FC00F8F5F0EE8420D21CFEADF075F008EF2F69
:10090C00FFED33FD4007985006D5F0F222C398FD59
:05091C000FD5F0EA22F6
:10092100C2D5EC30E709B2D5E4C39DFDE49CFCEEF1
:1009310030E715B2D5E4C39FFFE49EFE1208CCC395
:10094100E49DFDE49CFC80031208CC30D507C3E490
:060951009FFFE49EFE2260
:0E095700C3E49FFFE49EFEE49DFDE49CFC22B1
:10127D00021621E493A3F8E493A34003F68001F250
:10128D0008DFF48029E493A3F85407240CC8C33372
:10129D00C4540F4420C8834004F456800146F6DF41
:1012AD00E4800B01020408102040809017F0E47ECA
:1012BD00019360BCA3FF543F30E509541FFEE49336
:1012CD00A360010ECF54C025E060A840B8E493A3FD
:1012DD00FAE493A3F8E493A3C8C582C8CAC583CA28
:1012ED00F0A3C8C582C8CAC583CADFE9DEE780BEE0
:0117F90000EF
:00000001FF
