:0203620002F1A6
:02036400032A6A
:0203660003385A
:0203680003464A
:02036A0003543A
:02036C00031775
:1002F100D2A0D2A1D2A2D2A37F0112000E7F0212FC
:10030100000E7F0312000E7F0412000E7F05120003
:060311000EE4FF0200975C
:0E032A00B2A0E4FBFA7D0A7F0212012080F2ED
:0E033800B2A1E4FBFA7D087F0212012080F2E0
:0E034600B2A2E4FBFA7D067F0212012080F2D3
:0E035400B2A3E4FBFA7D047F0212012080F2C6
:1003170020B3FDD2A2D2A37F031200977F0412005D
:030327009780EDCF
:10000E00EFD3940540037FFF22740F2F2FF8E620C5
:10001E00E5F4C2AFE64430F6D2AFAE0CEEC39F505D
:10002E00210E741A2EF8E6F908E618BE050274FFC2
:10003E00FDED69600909E71919F7090980F316162C
:10004E0080DAEED39F400405810581EED39F4022D6
:10005E00741A2EF808E6F9EEB50C02A981180606F8
:10006E00E6FDED6960091919E70909F71980F31E14
:10007E0080D9EF241AF8E604F8EF2F049003629368
:09008E00F608EF2F93F67F002223
:10009700EFD3940540037FFF22EF23240FF8E630C8
:1000A700E5F4C2AFE6548CF6D2AFE50CB5070A7497
:1000B7001A2FF8E6F5810201FA502E741B2FF8E685
:1000C700BF050274FFFD18E6F9741A2FF8FBE6FC6A
:1000D700E96C6008A805E7F61D1980F4A803A605D2
:1000E7001FE50CB507E37F0022741B2FF8E6FD1808
:1000F70086010F741A2FF8A601088604E50CB507C8
:1001070002AC81ED6C60080D09A805E6F780F4E5FF
:090117000CB507DE89817F00228E
:100120008FF0E4FFFEE50C23240EF8C2A930F70D92
:100130007F08E6600B2DF660325030800730F10604
:10014000EDF660277E020830F010C2AFE610E7251A
:100150000E30E20CD2AF7F048014C2AFE610E71578
:1001600054EC4EF6D2AFD2A90201FA7F0808EF4450
:0F01700083F4C2AF56C6D2AFD2A954804FFF223C
:03000B000201846B
:10017F00C2AF80FE3212018385D00B75D008AAE082
:10018F00C28CE58A24F7F58AE58C34D8F58CD28CAD
:10019F00EC241BF8E6BC050274FFC39581B4140070
:1001AF0040CE7906780E16E608700BC2AFE630E146
:1001BF00034418F6D2AF08D9EDEA8BD030000122F4
:1001CF00D50DFCC0E0C0D0C0F0C083C082C000C05D
:1001DF0001C002C003C004C005C006C007E50C2360
:1001EF00240FF87440C2AF46F6D2AFD200E50CFF31
:1001FF0023240FF80F0808BF06047F00780FE6309E
:10020F00E4F200E50CC39F5020050C741A250CF87E
:10021F00E6FDA68108E6AE0CBE050274FFCDF8E838
:10022F006D60E008E6C0E080F6E50CD39F4027E55F
:10023F000C241BF8E6AE0CBE050274FFFD18E6CDCC
:10024F00F8E5816D6006D0E0F61880F5E50C241A0C
:10025F00C8F6150C80D3750D05E50C23240FF87F18
:10026F0004C2AFE610E61E30E00310E20C7F003050
:05027F00E10730E3047B
:100284007F0854F4547CC6D2AF54804207C2002283
:10029400F6D2AFD007D006D005D004D003D002D018
:1002A40001D000D082D083D0F0D0D0D0E0C20022E0
:1002B400781AA68174056006FF0876FFDFFB7F06C7
:1002C400E4780EF608F608DFFA780F7630900362C9
:1002D400740193C0E0E493C0E0750D054389017592
:0D02E4008AF0758CD8D28CD2AFD2A9220539
:0300000002036E8A
:0C036E00787FE4F6D8FD7581200202B40F
:00000001FF
